:03000000020006F5
:0B005F00750800E4F509F50A02000333
:0300030002007D7B
:20006A00AF8210990280FB8F992210980280FB8599822275FFDE75FFAD12018C1201651252
:20008A0001D11201E61201FB751100751200750C00750D00751300751400750E00750F0055
:2000AA007E00E4FFF515F516F517F518758400C2EDD2EC30EDFDADBEACBFAB0E8B0FAB0D46
:2000CA008B0EAB138B14AB128B13AB0C8B0DAB0B8B0CAB118B12AB108B11AA15AB168A1758
:2000EA008B188E158F168C0B8D1075840343C30875C22075C1008F928E9175C22075C10073
:20010A0085189285179175C21075C100850D9285129175C22075C100850C9285119175C2A2
:20012A001075C100850B9285109175840375840375840375840375840375840375840375CE
:20014A008403ADCF7C00AACE7B00EA4CFEEB4DFF7584008ED28FD30200B622AF8475840FE8
:20016A00758C677DB87E0B1DBDFF011EED4E70F7E58C30E7FB759701AE8A747F5EF58A8F8E
:20018A00842275840F75FFDE75FFAD75E10475E20475E34075A401758006758400C288226D
:2001AA00758400759850759110758400AF89740F5FF589438920758DF4438E10858D8BD206
:2001CA008E758400D2992275840075BA0075BB0075BC2075E80075D102D2EF227584007562
:1801EA00D48022D2AFD2A822758901758E08D28C2275840375C31A2270
:06003500E478FFF6D8FD9F
:200013007900E94400601B7A00900206780075A200E493F2A308B8000205A2D9F4DAF27588
:02003300A2FF2A
:20003B007800E84400600A790075A200E4F309D8FC7800E84400600C7900900000E4F0A3C3
:04005B00D8FCD9FAFA
:0D000600758118120202E5826003020003FA
:0402020075820022DF
:00000001FF
