:06000000020009020104E8
:0B006200750800E4F509F50A0200062D
:0300060002008075
:20006D00AF8210990280FB8F992210980280FB85998222E4F50DF50EF50FF510F511F512EC
:20008D00F513F514E4F515F516F517F518F519F51AF51BF51CE4F51DF51EF51FF520F521AA
:2000AD00F522F523F524E4F525F526F527F528F529F52AF52BF52C75FFDE75FFAD12012F66
:2000CD0012010812014D12017812019612018F758400C2EDD2EC30EDFD85BE0B90000C75E3
:2000ED00F040E5BF1201A4758400AF0B8FD2850CD375840080D92275080132AF8475840F91
:20010D00758C677DB87E0B1DBDFF011EED4E70F7E58C30E7FB759701AE8A747F5EF58A8FEB
:20012D00842275840F75FFDE75FFAD75E10475E20475E34075A401758006758400C28822CA
:20014D00AF84758400759850759110758400AE89740F5EF589438920758DF4438E10858D8F
:20016D008BD28E758400D2998F8422E58475840075BA0075BB0075BC2075E80075D103D264
:17018D00EF2275840075D48022D2AFD2A822758901758E08D28C22BF
:06003800E478FFF6D8FD9C
:200016007900E94400601B7A009001C3780075A200E493F2A308B8000205A2D9F4DAF275C9
:02003600A2FF27
:1B01A40020F71130F6138883A88220F509F6A8837583002280FEF280F5F0225A
:20003E007800E84400600A790075A200E4F309D8FC7800E84400600C7900900000E4F0A3C0
:04005E00D8FCD9FAF7
:0D00090075812D1201BFE582600302000623
:0401BF007582002223
:00000001FF
